{
  "address": "0xe7f1725E7734CE288F8367e1Bb143E90bb3F0512",
  "abi": [
    {
      "inputs": [
        {
          "internalType": "address",
          "name": "priceFeedAddress",
          "type": "address"
        }
      ],
      "stateMutability": "nonpayable",
      "type": "constructor"
    },
    {
      "inputs": [],
      "name": "FundMe__NotOwner",
      "type": "error"
    },
    {
      "stateMutability": "payable",
      "type": "fallback"
    },
    {
      "inputs": [],
      "name": "MINIMUM_USD",
      "outputs": [
        {
          "internalType": "uint256",
          "name": "",
          "type": "uint256"
        }
      ],
      "stateMutability": "view",
      "type": "function"
    },
    {
      "inputs": [],
      "name": "fund",
      "outputs": [],
      "stateMutability": "payable",
      "type": "function"
    },
    {
      "inputs": [],
      "name": "i_owner",
      "outputs": [
        {
          "internalType": "address",
          "name": "",
          "type": "address"
        }
      ],
      "stateMutability": "view",
      "type": "function"
    },
    {
      "inputs": [
        {
          "internalType": "address",
          "name": "",
          "type": "address"
        }
      ],
      "name": "s_addressToAmountFunded",
      "outputs": [
        {
          "internalType": "uint256",
          "name": "",
          "type": "uint256"
        }
      ],
      "stateMutability": "view",
      "type": "function"
    },
    {
      "inputs": [
        {
          "internalType": "uint256",
          "name": "",
          "type": "uint256"
        }
      ],
      "name": "s_funders",
      "outputs": [
        {
          "internalType": "address",
          "name": "",
          "type": "address"
        }
      ],
      "stateMutability": "view",
      "type": "function"
    },
    {
      "inputs": [],
      "name": "s_priceFeed",
      "outputs": [
        {
          "internalType": "contract AggregatorV3Interface",
          "name": "",
          "type": "address"
        }
      ],
      "stateMutability": "view",
      "type": "function"
    },
    {
      "inputs": [],
      "name": "withdraw",
      "outputs": [],
      "stateMutability": "nonpayable",
      "type": "function"
    },
    {
      "stateMutability": "payable",
      "type": "receive"
    }
  ],
  "transactionHash": "0x7b02b4c919068a24167fc74472881b5a3a9dfe8535f65cb565b3d92afa4da39a",
  "args": [
    "0x5FbDB2315678afecb367f032d93F642f64180aa3"
  ],
  "numDeployments": 1,
  "solcInputHash": "9603ab2cadf09f9feb6479a2231d36a0",
  "bytecode": "0x60a060405234801561001057600080fd5b50604051610f80380380610f8083398181016040528101906100329190610110565b3373ffffffffffffffffffffffffffffffffffffffff1660808173ffffffffffffffffffffffffffffffffffffffff168152505080600260006101000a81548173ffffffffffffffffffffffffffffffffffffffff021916908373ffffffffffffffffffffffffffffffffffffffff1602179055505061013d565b600080fd5b600073ffffffffffffffffffffffffffffffffffffffff82169050919050565b60006100dd826100b2565b9050919050565b6100ed816100d2565b81146100f857600080fd5b50565b60008151905061010a816100e4565b92915050565b600060208284031215610126576101256100ad565b5b6000610134848285016100fb565b91505092915050565b608051610e1a610166600039600081816103230152818161051901526106330152610e1a6000f3fe6080604052600436106100745760003560e01c806354861af71161004e57806354861af71461010c5780636b69a59214610149578063b60d428814610174578063dba6335f1461017e57610083565b80630ec3b0271461008d5780631bf6132d146100b85780633ccfd60b146100f557610083565b36610083576100816101a9565b005b61008b6101a9565b005b34801561009957600080fd5b506100a26102e3565b6040516100af9190610848565b60405180910390f35b3480156100c457600080fd5b506100df60048036038101906100da91906108a6565b610309565b6040516100ec91906108ec565b60405180910390f35b34801561010157600080fd5b5061010a610321565b005b34801561011857600080fd5b50610133600480360381019061012e9190610933565b6105e5565b604051610140919061096f565b60405180910390f35b34801561015557600080fd5b5061015e610624565b60405161016b91906108ec565b60405180910390f35b61017c6101a9565b005b34801561018a57600080fd5b50610193610631565b6040516101a0919061096f565b60405180910390f35b6802b5e3af16b18800006101e8600260009054906101000a900473ffffffffffffffffffffffffffffffffffffffff163461065590919063ffffffff16565b1015610229576040517f08c379a0000000000000000000000000000000000000000000000000000000008152600401610220906109e7565b60405180910390fd5b346000803373ffffffffffffffffffffffffffffffffffffffff1673ffffffffffffffffffffffffffffffffffffffff16815260200190815260200160002060008282546102779190610a36565b925050819055506001339080600181540180825580915050600190039060005260206000200160009091909190916101000a81548173ffffffffffffffffffffffffffffffffffffffff021916908373ffffffffffffffffffffffffffffffffffffffff160217905550565b600260009054906101000a900473ffffffffffffffffffffffffffffffffffffffff1681565b60006020528060005260406000206000915090505481565b7f000000000000000000000000000000000000000000000000000000000000000073ffffffffffffffffffffffffffffffffffffffff163373ffffffffffffffffffffffffffffffffffffffff16146103a6576040517f579610db00000000000000000000000000000000000000000000000000000000815260040160405180910390fd5b6000600180548060200260200160405190810160405280929190818152602001828054801561042a57602002820191906000526020600020905b8160009054906101000a900473ffffffffffffffffffffffffffffffffffffffff1673ffffffffffffffffffffffffffffffffffffffff16815260200190600101908083116103e0575b5050505050905060005b81518110156104b457600082828151811061045257610451610a6a565b5b6020026020010151905060008060008373ffffffffffffffffffffffffffffffffffffffff1673ffffffffffffffffffffffffffffffffffffffff168152602001908152602001600020819055505080806104ac90610a99565b915050610434565b50600067ffffffffffffffff8111156104d0576104cf610ae1565b5b6040519080825280602002602001820160405280156104fe5781602001602082028036833780820191505090505b5060019080519060200190610514929190610722565b5060007f000000000000000000000000000000000000000000000000000000000000000073ffffffffffffffffffffffffffffffffffffffff164760405161055b90610b41565b60006040518083038185875af1925050503d8060008114610598576040519150601f19603f3d011682016040523d82523d6000602084013e61059d565b606091505b50509050806105e1576040517f08c379a00000000000000000000000000000000000000000000000000000000081526004016105d890610ba2565b60405180910390fd5b5050565b600181815481106105f557600080fd5b906000526020600020016000915054906101000a900473ffffffffffffffffffffffffffffffffffffffff1681565b6802b5e3af16b188000081565b7f000000000000000000000000000000000000000000000000000000000000000081565b60008061066183610691565b90506000670de0b6b3a7640000858361067a9190610bc2565b6106849190610c33565b9050809250505092915050565b6000808273ffffffffffffffffffffffffffffffffffffffff1663feaf968c6040518163ffffffff1660e01b815260040160a060405180830381865afa1580156106df573d6000803e3d6000fd5b505050506040513d601f19601f820116820180604052508101906107039190610cf1565b5050509150506402540be4008161071a9190610d6c565b915050919050565b82805482825590600052602060002090810192821561079b579160200282015b8281111561079a5782518260006101000a81548173ffffffffffffffffffffffffffffffffffffffff021916908373ffffffffffffffffffffffffffffffffffffffff16021790555091602001919060010190610742565b5b5090506107a891906107ac565b5090565b5b808211156107c55760008160009055506001016107ad565b5090565b600073ffffffffffffffffffffffffffffffffffffffff82169050919050565b6000819050919050565b600061080e610809610804846107c9565b6107e9565b6107c9565b9050919050565b6000610820826107f3565b9050919050565b600061083282610815565b9050919050565b61084281610827565b82525050565b600060208201905061085d6000830184610839565b92915050565b600080fd5b6000610873826107c9565b9050919050565b61088381610868565b811461088e57600080fd5b50565b6000813590506108a08161087a565b92915050565b6000602082840312156108bc576108bb610863565b5b60006108ca84828501610891565b91505092915050565b6000819050919050565b6108e6816108d3565b82525050565b600060208201905061090160008301846108dd565b92915050565b610910816108d3565b811461091b57600080fd5b50565b60008135905061092d81610907565b92915050565b60006020828403121561094957610948610863565b5b60006109578482850161091e565b91505092915050565b61096981610868565b82525050565b60006020820190506109846000830184610960565b92915050565b600082825260208201905092915050565b7f596f75206e65656420746f207370656e64206d6f726520455448210000000000600082015250565b60006109d1601b8361098a565b91506109dc8261099b565b602082019050919050565b60006020820190508181036000830152610a00816109c4565b9050919050565b7f4e487b7100000000000000000000000000000000000000000000000000000000600052601160045260246000fd5b6000610a41826108d3565b9150610a4c836108d3565b9250828201905080821115610a6457610a63610a07565b5b92915050565b7f4e487b7100000000000000000000000000000000000000000000000000000000600052603260045260246000fd5b6000610aa4826108d3565b91507fffffffffffffffffffffffffffffffffffffffffffffffffffffffffffffffff8203610ad657610ad5610a07565b5b600182019050919050565b7f4e487b7100000000000000000000000000000000000000000000000000000000600052604160045260246000fd5b600081905092915050565b50565b6000610b2b600083610b10565b9150610b3682610b1b565b600082019050919050565b6000610b4c82610b1e565b9150819050919050565b7f43616c6c206661696c6564000000000000000000000000000000000000000000600082015250565b6000610b8c600b8361098a565b9150610b9782610b56565b602082019050919050565b60006020820190508181036000830152610bbb81610b7f565b9050919050565b6000610bcd826108d3565b9150610bd8836108d3565b9250828202610be6816108d3565b91508282048414831517610bfd57610bfc610a07565b5b5092915050565b7f4e487b7100000000000000000000000000000000000000000000000000000000600052601260045260246000fd5b6000610c3e826108d3565b9150610c49836108d3565b925082610c5957610c58610c04565b5b828204905092915050565b600069ffffffffffffffffffff82169050919050565b610c8381610c64565b8114610c8e57600080fd5b50565b600081519050610ca081610c7a565b92915050565b6000819050919050565b610cb981610ca6565b8114610cc457600080fd5b50565b600081519050610cd681610cb0565b92915050565b600081519050610ceb81610907565b92915050565b600080600080600060a08688031215610d0d57610d0c610863565b5b6000610d1b88828901610c91565b9550506020610d2c88828901610cc7565b9450506040610d3d88828901610cdc565b9350506060610d4e88828901610cdc565b9250506080610d5f88828901610c91565b9150509295509295909350565b6000610d7782610ca6565b9150610d8283610ca6565b9250828202610d9081610ca6565b91507f80000000000000000000000000000000000000000000000000000000000000008414600084121615610dc857610dc7610a07565b5b8282058414831517610ddd57610ddc610a07565b5b509291505056fea2646970667358221220592b8fce71327ae1d214b42d94cbdaf8cb1184583553d872a2a3f15cfa40289164736f6c63430008110033",
  "devdoc": {
    "kind": "dev",
    "methods": {},
    "version": 1
  },
  "userdoc": {
    "kind": "user",
    "methods": {},
    "version": 1
  },
  "storageLayout": {
    "storage": [
      {
        "astId": 321,
        "contract": "contracts/FundMe.sol:FundMe",
        "label": "s_addressToAmountFunded",
        "offset": 0,
        "slot": "0",
        "type": "t_mapping(t_address,t_uint256)"
      },
      {
        "astId": 324,
        "contract": "contracts/FundMe.sol:FundMe",
        "label": "s_funders",
        "offset": 0,
        "slot": "1",
        "type": "t_array(t_address)dyn_storage"
      },
      {
        "astId": 336,
        "contract": "contracts/FundMe.sol:FundMe",
        "label": "s_priceFeed",
        "offset": 0,
        "slot": "2",
        "type": "t_contract(AggregatorV3Interface)102"
      }
    ],
    "types": {
      "t_address": {
        "encoding": "inplace",
        "label": "address",
        "numberOfBytes": "20"
      },
      "t_array(t_address)dyn_storage": {
        "base": "t_address",
        "encoding": "dynamic_array",
        "label": "address[]",
        "numberOfBytes": "32"
      },
      "t_contract(AggregatorV3Interface)102": {
        "encoding": "inplace",
        "label": "contract AggregatorV3Interface",
        "numberOfBytes": "20"
      },
      "t_mapping(t_address,t_uint256)": {
        "encoding": "mapping",
        "key": "t_address",
        "label": "mapping(address => uint256)",
        "numberOfBytes": "32",
        "value": "t_uint256"
      },
      "t_uint256": {
        "encoding": "inplace",
        "label": "uint256",
        "numberOfBytes": "32"
      }
    }
  }
}